:020000040800F2
:10000000A007002089010008F51500086513000805
:10001000551500088F02000869190008000000004B
:10002000000000000000000000000000F9150008BA
:10003000DD02000800000000F7150008FB150008AD
:10004000A3010008A3010008A3010008A301000800
:10005000A3010008A3010008A3010008A3010008F0
:10006000A3010008A3010008A3010008A3010008E0
:10007000A3010008A3010008A3010008A3010008D0
:10008000A3010008A3010008A3010008A3010008C0
:10009000A3010008A3010008A3010008A3010008B0
:1000A000A301000861160008A3010008A3010008CD
:1000B000A3010008A3010008A3010008A301000890
:1000C000A3010008A3010008A3010008A301000880
:1000D000A3010008A3010008A3010008A301000870
:1000E000A3010008A3010008A301000800F002F822
:1000F00000F03AF80AA090E8000C82448344AAF188
:100100000107DA4501D100F02FF8AFF2090EBAE885
:100110000F0013F0010F18BFFB1A43F0010318473B
:10012000901C0000B01C0000103A24BF78C878C1B1
:10013000FAD8520724BF30C830C144BF04680C60ED
:10014000704700000023002400250026103A28BF35
:1001500078C1FBD8520728BF30C148BF0B60704739
:100160001FB51FBD10B510BD00F058F81146FFF7C0
:10017000F7FF01F00BFC00F076F803B4FFF7F2FF95
:1001800003BC00F07DF8000009488047094800479B
:10019000FEE7FEE7FEE7FEE7FEE7FEE7FEE7FEE737
:1001A000FEE7FEE704480549054A064B7047000094
:1001B0005D160008ED000008A0010020A007002047
:1001C000A0030020A00300204FF0000200B513465A
:1001D00094469646203922BFA0E80C50A0E80C5067
:1001E000B1F12001BFF4F7AF090728BFA0E80C5018
:1001F00048BF0CC05DF804EB890028BF40F8042B11
:1002000008BF704748BF20F8022B11F0804F18BF7D
:1002100000F8012B7047704770477047754600F033
:100220002BF8AE4605006946534620F00700854688
:1002300018B020B5FFF7B6FFBDE820404FF000062C
:100240004FF000074FF000084FF0000B21F00701BE
:10025000AC46ACE8C009ACE8C009ACE8C009ACE801
:10026000C0098D46704710B50446AFF300802046A4
:10027000BDE81040FFF781BF0048704740010020F3
:1002800001491820ABBEFEE7260002007047FEE7DA
:1002900070B50E480068446A0D4DE868201AB0F544
:1002A000004F02DBA0F5803004E010F5004F01DCC8
:1002B00000F5803001F082FC064901F0BDFB0649E3
:1002C00001F094FC6860EC6070BD0000B00000209C
:1002D00000000020000050410080BB45704772B60E
:1002E000FEE7000070B5044600F004F90546601C06
:1002F00002D004480078044400F0FCF8401BA042FF
:10030000FAD370BD100000202DE9F84FDFF8B89146
:100310000024A9F1040B23460F2709F1040AABF1CD
:10032000040EC9E00125A5402A40AA427DD1674EAE
:10033000D1F804C0ACEB0608B44532D014DCBCF1F3
:10034000030F3AD009DCBCF1000F2AD0BCF1010F39
:100350001CD0BCF1020F31D11DE0BCF1110F17D040
:10036000BCF1120F2AD119E0B8F5881F19D006DCAC
:10037000B8F5803F15D0B8F5801F1FD111E0B8F552
:10038000001F0ED0B8F5041F18D10AE0CB6815E0A5
:10039000CB681B1D12E0CB6808330FE0CB680C3331
:1003A0000CE08B682BB1012B4FF0080303D04561A3
:1003B00004E0042302E0056100E00023FF2A01D8E5
:1003C000064601E000F104064FEA840501D9A5F1D3
:1003D0002005D6F8008007FA05FC28EA0C0803FA85
:1003E00005F548EA0508C6F800804D68ED0062D5BD
:1003F000374DAE6946F00106AE61AD6924F00306E3
:1004000005F001050095334D06EB050CDCF80850AE
:10041000A607360F07FA06F825EA0805DFF8B880C0
:10042000404503D14FF0000817E044E0DFF8AC800E
:10043000404502D14FF001080FE0DFF8A4804045AD
:1004400002D14FF0020808E0DFF89880404502D161
:100450004FF0030801E04FF0040808FA06F848EAF4
:100460000508CCF808804D68D9F80060ED024D46CB
:1004700001D5164300E096432E604D68DAF800601F
:10048000AD02554601D5164300E096432E604D68F7
:10049000DBF80060AD035D4601D5164300E09643EE
:1004A0002E604D68DEF80060ED03754601D51643F9
:1004B00000E096432E60641C0D682A46E5407FF4F8
:1004C00031AFBDE8F88F00000804014000001110B2
:1004D000001002400000014000080140000C0140F3
:1004E00000100140001401400AB101617047090485
:1004F000FBE7000001488068704700001000002002
:100500000248816802781144816070471000002021
:10051000074810B5016841F010010160032000F0A8
:1005200075F80F2000F006F800F024F8002010BD48
:100530000020024070B50D4D04464FF47A712878C2
:10054000B1FBF0F00A490968B1FBF0F000F0DCFA09
:1005500048B9102C07D200222146501E00F036F870
:1005600000206C6070BD012070BD000010000020F4
:100570001C0000200C4808B5816941F0010181612F
:10058000816901F001010091C16941F08051C161AF
:10059000C06900F0805000900448416821F0E0619B
:1005A00041F00071416008BD0010024000000140B0
:1005B000002809DB00F01F02012191404009800062
:1005C00000F1E020C0F8001170470000F0B40E4BBD
:1005D0001B680C46C3F30223C3F10705042D00D9A1
:1005E0000425191D072901D2002300E0DB1E012686
:1005F00006FA05F1491E214099409E40761E16409C
:100600003143F0BC01F0B1B90CED00E0064900F057
:10061000070208684FF6FF03184040EA0220034A29
:1006200010430860704700000CED00E00000FA0580
:100630002DE9F0470F46050061D0434E306800F0C9
:100640000700B84209D2306820F007003843306014
:10065000306800F00700B84251D128683B4C810750
:1006600012D5400703D5606840F4E06060602878E8
:10067000000703D5606840F4605060606068A96856
:1006800020F0F000084360602878C00728D0686830
:10069000012810D02168022810D0890700292EDAFD
:1006A000616821F0030101436160FFF723FF804689
:1006B00041F288390DE021688903EFE78901EDE710
:1006C000FFF718FFA0EB0801494502D90320BDE858
:1006D000F0876068696800F00C00B0EB810FEFD123
:1006E000306800F00700B8420BD9306820F00700EE
:1006F00038433060306800F00700B84201D0012074
:10070000E5E72878400705D56068E96820F4E060EF
:10071000084360602878000706D56068296920F4DE
:10072000605040EAC100606000F038F86168084A33
:10073000C1F30311515CC8400649086006480068CF
:10074000FFF7F8FE0020C2E7002002400010024040
:10075000961D00081C0000201400002004480549D4
:1007600000684968044AC1F30221515CC8407047DF
:100770001C00002000100240A61D00080448054986
:1007800000684968044AC1F3C221515CC8407047FF
:100790001C00002000100240A61D00080E4A5168EF
:1007A0000E4801F00C03042B11D0082B0FD10C487C
:1007B000C1F38343C903C05C0AD55168084AC1F339
:1007C0004041921E515C054A5043B0FBF1F0704726
:1007D00004494843704700000010024000127A00AC
:1007E000861D000800093D002DE9F84F040070D077
:1007F0002078C04DC00749D06868C0F38100012847
:1008000007D06868C0F38100022809D16868C00376
:1008100006D52868800339D560680028E7D035E020
:100820006068B0F5803F0BD010B1B0F5A02F11D0AB
:10083000286820F480302860286820F4802002E0B6
:10084000286840F480302860606890B1FFF752FE5D
:1008500006460AE0286840F480202860F0E700BFE0
:10086000FFF748FE801B642873D828688003F7D5FB
:100870000CE0FFF73FFE064605E000BFFFF73AFE3B
:10088000801B6428F0D828688003F7D420789A4E1B
:1008900080074FF001094FF0000839D5686810F063
:1008A0000C0F07D06868C0F38100022809D168687E
:1008B000C00306D42868800714D52069012808D110
:1008C00010E02069B0B1C6F80090FFF713FE0746AC
:1008D00005E00AE1FFF70EFEC01B0228C4D8286815
:1008E0008007F7D52868616920F0F80040EAC10068
:1008F00028600DE0C6F80080FFF7FCFD074604E025
:10090000FFF7F8FDC01B022823D828688007F7D41A
:10091000207800072CD57948A169D9B1C0F800909A
:10092000FFF7E8FD074604E0FFF7E4FDC01B0228DF
:100930000FD8686A8007F7D571484FF4FA510068FC
:10094000B0FBF1F0009000BF0098411E0091FAD278
:100950000EE080E0C0F80080FFF7CCFD074604E021
:10096000FFF7C8FDC01B022875D8686A8007F7D456
:100970002078400760D5E8690027C00008D4E869FE
:1009800040F08050E861E869012700F08050009055
:100990005C480168C90513D40168834641F480713D
:1009A0000160FFF7A7FD824606E000BFFFF7A2FD4A
:1009B000A0EB0A0064284ED8DBF80000C005F5D58E
:1009C000E06801280AD008B1052813D0286A20F071
:1009D00001002862286A20F0040002E0286A40F042
:1009E00001002862E06841F2883B98B1FFF782FD80
:1009F00082460BE0286A40F004002862EEE700BF60
:100A0000FFF778FDA0EB0A0159455AD8286A8007FC
:100A1000F6D50CE0FFF76EFD824605E0FFF76AFDB4
:100A2000A0EB0A0159454CD8286A8007F6D41FB1BB
:100A3000E86920F08050E861E06988B36968C1F333
:100A40008101022944D00228C6F8608004D0FFF753
:100A500051FD044638E034E0FFF74CFD074604E062
:100A6000FFF748FDC01B02282BD828688001F7D467
:100A7000206AB0F5803F05D16868A16820F4003095
:100A800008436860D4E908010843696821F47411D7
:100A900008436860C6F86090FFF72CFD044606E046
:100AA00025E000BFFFF726FD001B022809D82868B3
:100AB0008001F7D51BE000BFFFF71CFD001B0228DB
:100AC00002D90320BDE8F88F28688001F4D40EE035
:100AD0000128F7D06868226A00F48031914204D17D
:100AE000616A00F47010884201D00120EAE700201A
:100AF000E8E7000000100240000042428004424249
:100B00001C0000200070004010B5401EB0F1807F36
:100B100001D3012010BD4FF0E02460610F21601768
:100B200000F023FF0020A06107202061002010BDFD
:100B30007047704770B590F83C20012A26D00124F8
:100B400080F83C40022280F83D2003685A689D6886
:100B500022F070060A6832435A600D4B02689A42CE
:100B600008D0B2F1804F05D00A4B9A4202D00A4B0E
:100B70009A4204D1496825F080031943916080F8B6
:100B80003D40002180F83C10084670BD022070BD39
:100B9000002C0140000400400008004010B5040093
:100BA00003D094F83D0010B107E0012010BD0020F3
:100BB00084F83C00204600F01FF8022084F83D0035
:100BC000211D206800F052FD012084F8460084F8C1
:100BD0003E0084F83F0084F8400084F8410084F827
:100BE000420084F8430084F8440084F8450084F807
:100BF0003D00002010BD000008B500680B49884288
:100C000012D10B48816941F4006181618069002241
:100C100000F40060009011461920FFF7D7FCBDE8F2
:100C200008401920FFF7C4BC08BD0000002C01409B
:100C30000010024090F83D10012901D001207047BA
:100C4000022180F83D100168CA6842F00102CA60C2
:100C500000680B49884208D0B0F1804F05D009499F
:100C6000884202D00849884204D1816801F0070116
:100C7000062903D0016841F001010160002070479E
:100C8000002C0140000400400008004070B50446FC
:100C900090F83C000025012817D0012684F83C601C
:100CA000022084F83D002068826822F0770222F456
:100CB0007F4282600868502838D00DDC20284FD051
:100CC00005DC90B3102811D14AE0022070BD302815
:100CD00046D040280AD13BE060282FD070280DD0A4
:100CE000B0F5805F03D0B0F5005F12D0012584F825
:100CF0003D60002084F83C00284670BDCB68D1E9F7
:100D00000121206800F0FBFC2068816841F0770138
:100D100009E0CB68D1E90121206800F0F0FC2068EF
:100D2000816841F480418160E1E719E0CA6849685F
:100D3000206800F099FD5021206806E0CA684968E3
:100D4000206800F0A2FD6021206800F0E2FCCEE700
:100D5000CA684968206800F087FD40212068F4E7F0
:100D6000226801461046F0E72DE9F0410D460400E7
:100D700003D094F83D0018B108E00120BDE8F081EF
:100D8000002084F83C00204600F040F8022084F85F
:100D90003D002068816844F2070291438160211D73
:100DA000206800F063FC226890689169166A2B68DD
:100DB000AF69034340F20330814341EA0721A86849
:100DC000EF6908434FF6FC418843E96840EA072091
:100DD000014328692F6A000140EA07300843696827
:100DE0006D6926F0220646EA0515294393602268BC
:100DF000906154F8460B0162012004F81F09E07568
:100E00002076E0762077A0750020B7E700B585B0A2
:100E10000021009101910291039100680D498842DF
:100E200016D10D48C16941F00201C161C16901F0EB
:100E300002010491816941F0040181618069694680
:100E400000F004000490C02000900448FFF75CFA12
:100E500005B000BD00040040001002400008014041
:100E600070B590F83E60044690F83F5090F84230DC
:100E700090F84320022021B104290ED0012E1BD16D
:100E800014E0012E18D1012B16D184F83E0084F80D
:100E9000420001220021206820E0012D0CD1012A0E
:100EA0000AD184F83F0084F8430014E0012D03D1F7
:100EB000012B01D1012A01D0012070BD84F83E0030
:100EC00084F83F0084F8420084F8430001220021A6
:100ED000206800F007FC01220421206800F002FCD9
:100EE0002068016841F001010160002070BD704779
:100EF0002DE9F04104460068C66805694FF0000717
:100F0000A90713D5B10711D5F91E0161012020777A
:100F1000206880698007204602D0FFF7E8FF04E0E0
:100F200000F0AEF8204600F051F92777680716D593
:100F3000700714D521686FF0040008610220207743
:100F40002068806910F4407F204602D0FFF7CFFF71
:100F500004E000F095F8204600F038F927772807DC
:100F600015D5300713D521686FF0080008610420FB
:100F700020772068C0698007204602D0FFF7B7FFBE
:100F800004E000F07DF8204600F020F92777E8061D
:100F900016D5F00614D521686FF0100008610820FE
:100FA00020772068C06910F4407F204602D0FFF708
:100FB0009EFF04E000F064F8204600F007F9277770
:100FC000E80708D0F00706D021686FF0010008613B
:100FD000204600F04BF9280608D5300606D52168D2
:100FE0006FF0800008612046FFF7A2FD680608D573
:100FF000700606D521686FF040000861204600F0B9
:1010000045F9A8060AD5B00608D521686FF020007A
:1010100008612046BDE8F041FFF78BBDBDE8F081D7
:1010200000B585B000210091019102910391006803
:10103000B0F1804F1BD10F48816941F004018161FB
:101040008069694600F0040004904FF4004000906D
:101050000220019003900848FFF756F907484168BD
:1010600021F4407141F0E06141F48071416005B0CC
:1010700000BD0000001002400008014000000140D7
:10108000704770B5044690F83C0000260D460128D4
:101090000FD0012084F83C006AB1042A1DD0082A30
:1010A0002FD00C2A3FD00126002084F83C00304687
:1010B00070BD022070BD206800F034FB206881699B
:1010C00041F0080181612068816921F0040181619A
:1010D000206881692A69114311E0206800F04AFB09
:1010E0002068816941F4006181612068816921F48F
:1010F00080618161206881692A6941EA02218161F8
:10110000D2E7206800F062FB2068C16941F0080165
:10111000C1612068C16921F00401C1612068C16911
:101120002A69114311E0206800F07CFB2068C16946
:1011300041F40061C1612068C16921F48061C1612D
:101140002068C1692A6941EA0221C161ACE710B592
:10115000040003D094F83D0010B107E0012010BD59
:10116000002084F83C00204600F01EF8022084F89D
:101170003D00211D206800F079FA012084F8460026
:1011800084F83E0084F83F0084F8400084F8410071
:1011900084F8420084F8430084F8440084F8450051
:1011A00084F83D00002010BD08B50068B0F1804F04
:1011B00008D10548C16941F00101C161C06900F071
:1011C0000100009008BD00000010024070470000C0
:1011D00010B50446022249B104290ED0082913D0C3
:1011E00094F84100012816D0012010BD94F83E006B
:1011F0000128F9D184F83E200FE094F83F0001283F
:10120000F2D184F83F2008E094F840000128EBD1A7
:1012100084F8402001E084F841200122206800F099
:1012200061FA0F492068884203D1426C42F40042BF
:1012300042642068884208D0B0F1804F05D0094947
:10124000884202D00849884204D1816801F0070130
:10125000062903D0016841F001010160002010BDA2
:10126000002C0140000400400008004000680549CF
:10127000884205D104488168491C8160FFF708B89D
:1012800070470000002C014000000020704770B53E
:10129000040004D094F84100002510B106E00120BC
:1012A00070BD84F84050204600F024F8242084F8D3
:1012B00041002068C16821F40051C160204600F05F
:1012C000F7FA2068016921F49041016120684169C1
:1012D00021F02A0141612068C16841F40051C160D8
:1012E0006564202084F8410084F842006563002092
:1012F00070BD000030B585B00024009401940294C4
:10130000039400681449884224D11448816941F447
:1013100080418161816901F480410491816941F0DA
:101320000401816180690E4D00F0040004904FF4C7
:101330000070009002200190032003906946284627
:10134000FEF7E2FF2815CDE900046946284602941D
:10135000FEF7DAFF05B030BD003801400010024052
:1013600000080140FEE7000030B585B000241848B1
:101370000094019402940394816941F01001816109
:10138000816901F010010491816941F020018161BE
:10139000816901F020010491816941F004018161BA
:1013A00080690C4D00F00400049000220B212846B7
:1013B000FFF79AF80B2000900120CDE901040220EC
:1013C000039069462846FEF79FFF05B030BD000038
:1013D000001002400008014010B586B000241748F4
:1013E00000940194029403940494134905940160B9
:1013F00041F61F41C0E901146321C0E903144461AF
:101400008461FFF7CBFB08B1FEF769FF4FF4805012
:10141000009069460948FFF739FC08B1FEF75FFF05
:10142000049404A905480594FFF784FB002801D023
:10143000FEF755FF06B010BD002C01402000002033
:1014400010B58AB0002407941C2168460894FEF762
:10145000BBFE16484FF0804101604721C0E90114EE
:1014600040F2E731C0E903148461FFF770FE08B170
:10147000FEF735FF079407A90C480894FFF75AFBBD
:1014800008B1FEF72CFF6020CDE900040294002291
:10149000694606480494FFF7F4FD08B1FEF71FFF04
:1014A0000248FFF7BDFD0AB010BD00006800002033
:1014B00010B58CB024216846FEF786FE002416483D
:1014C000099414490A94C0E900144FF6FF71C0E969
:1014D0000241046184610320CDE900040120CDE9CB
:1014E00002040F210491CDE90540CDE90741694689
:1014F0000948FFF739FC08B1FEF7F1FE099409A984
:1015000005480A94FFF716FB002801D0FEF7E7FE16
:101510000CB010BD00040040B00000200C4810B515
:101520000A4901604FF4E1314160002181600C22E1
:10153000C160C0E904128161C161FFF7A8FE002803
:1015400003D0BDE81040FEF7CABE10BD0038014010
:10155000F8000020FEE7000070B5094D04460122A6
:1015600011462846FEF7C0FF002202212846FEF75A
:10157000BBFF04480068446303490120087070BD44
:1015800000080140680000200000002070B5094DEF
:101590000446002201212846FEF7A6FF012202216F
:1015A0002846FEF7A1FF044800684463034902206F
:1015B000087070BD00080140680000200000002095
:1015C00010B5094C002201212046FEF78DFF0022B4
:1015D00002212046FEF788FF04490020096848637D
:1015E0000349087010BD0000000801406800002099
:1015F00000000020FEE770477047FEF781BF30B55E
:101600008FB028216846FEF7DFFD14210AA8FEF7F7
:10161000DBFD01210804CDE900100024029402251D
:101620000491CDE907504FF4E01009906846FFF7A8
:10163000DBF808B172B6FEE70F20CDE90A054FF4DA
:101640008060CDE90C4002210AA80E94FEF7F0FF5D
:10165000002801D072B6FEE70FB030BD7047000021
:101660000148FFF745BC000020000020F0B50268EB
:10167000194B1A4C1A4D4FF08047984205D0B8428A
:1016800003D0A04201D0A84203D122F070064A68DC
:101690003243984205D0B84203D0A04201D0A842BC
:1016A00003D122F44074CA6822434C6922F08002BC
:1016B000224302608A68C2620A688262984201D14B
:1016C00009690163012141610169C90703D0016909
:1016D00021F001010161F0BD002C01400004004037
:1016E0000008004010B501F01F030121046A994071
:1016F0008C430462016A9A401143016210BD10B527
:10170000846842EA032224F47F440A43224382602D
:1017100010BD826822F070020A4342F00701816026
:101720007047000030B5036A026A22F001020262CB
:101730004268846924F073050C682C4323F0020589
:101740008B682B430A4DA8420BD123F00805CB68C8
:1017500022F440722B434D6923F0040315438A6938
:101760002A434260846149684163036230BD0000DE
:10177000002C014030B5026A036A23F010030362B3
:10178000436884690D6824F4E64444EA05248D68BE
:1017900022F0200242EA05120B4DA8420ED1CD687C
:1017A00022F0800242EA05124D6923F4406343EAC5
:1017B00085038D6922F0400243EA8503436084611A
:1017C00049688163026230BD002C014030B5036A74
:1017D000026A22F4807202624268C46923F40073D0
:1017E00024F073050C682C438D6843EA05230C4DE7
:1017F000A8420ED1CD6823F4006343EA05234D6966
:1018000022F4405242EA05128D6923F4806342EAD1
:1018100005124260C4614968C163036230BD0000C3
:10182000002C014030B5046A026A22F48052026240
:101830004268C3690D6823F4E64343EA05238D68D3
:1018400024F4005444EA0534064DA84204D14D69FD
:1018500022F4804242EA85124260C3614968016411
:10186000046230BD002C014010B5036A046A24F004
:1018700001040462846924F0F00444EA021423F0B1
:101880000A020A438461026210BD10B5036A046A49
:1018900024F010040462846923F0A00324F470444B
:1018A00044EA023243EA01118261016210BD000084
:1018B00070B5044600680169E26821F440511143A3
:1018C00001612169A0680843616908432168CA6809
:1018D00041F20C639A430243CA6020684169A269DD
:1018E00021F44071114341611E492068884202D1B0
:1018F000FEF744FF01E0FEF731FF00EBC00101EB12
:101900000012606864218000B2FBF0F3B3FBF1F3D6
:101910006FF018067343B2FBF0F5B2FBF0F605EB7F
:101920008305322303EB0515B5FBF1F5B6FBF1F6A4
:1019300005F0F00505EB0615B2FBF0F6B2FBF0F092
:10194000B0FBF1F06FF01802504306EB800003EBA0
:101950000010B0FBF1F0216800F00F00284488600F
:1019600070BD000000380140FEE70907090E00289D
:1019700004DB00F1E02080F80014704700F00F0055
:1019800000F1E02080F8141D70470000FEF7C0FD54
:10199000FEF7BEFDFFF733FEFFF731FEFFF7E4FC75
:1019A000FFF74EFDFFF784FDFFF7B8FDFFF714FDCD
:1019B00000211D48FFF70CFC3C211C48FFF750FAA2
:1019C0001B48FFF737F91B4C012208212046FEF780
:1019D0008BFDFFF7F5FD4FF4967640F6B8354FF4E2
:1019E0007A774FF416784FF4FA693046FFF7B4FD72
:1019F0002846FEF777FCFFF7E3FD3846FEF772FC5A
:101A00004046FFF7C3FD2846FEF76CFC0122114655
:101A10002046FEF769FD012202212046FEF764FD03
:101A20004846FEF75FFCE0E768000020B0000020B9
:101A300020000020000801404FF47F0C1CEAD01267
:101A40001EBF1CEAD11392EA0C0F93EA0C0F00F0B0
:101A5000858090EA010F48BF42F4807240F4000C88
:101A600041F400002CF07F4120F07F4000B581421E
:101A7000A2EB03020FF2081CACEB504EC0F10000C9
:101A80009EF800E04FEA4E0E00FB0EFC38BF490006
:101A90004FEA2C1C02F5FA020CFB0EF34FEACE1EA5
:101AA0004FEA112C4FEAC1210EEB635E42EB22425A
:101AB0000EFB0CFC4FEA1C5300FB03114FEA112CE8
:101AC0004FEA01310EFB0CFC4FEADC4C00FB0C1121
:101AD000C14228BF09184CEB03335DF804EB10EB4F
:101AE000410143EBC250B2F57C0F38BF704729D596
:101AF00012F0F00F1CBF00F1C04000F00040704732
:101B0000008182838485868788898B8C8D8E8F91D6
:101B10009293959697999A9C9D9FA0A2A3A5A7A8FA
:101B2000AAACAEB0B2B3B5B7B9BCBEC0C2C5C7C926
:101B3000CCCED1D4D7D9DCDFE2E6E9ECF0F3F7FA8A
:101B4000FE0000004FEA400C0CF1807CBCF17E4F9F
:101B500028BF7047B0F1C04000F00FB990EA010F04
:101B60000CEAD11348BF42F48072624538BF634526
:101B700007D213F47F0F16D080EA010000F0004076
:101B8000704710B500F0B3F8097EFC3E00F005B8D0
:101B900080EA010000F00040704780EA010000F098
:101BA000004000F0EAB812F47F0F04BF024870470B
:101BB00080EA010000F0E1B80000C07F10F00041B1
:101BC00048BF4042B0FA80F310FA03F2C3F19D031C
:101BD0000BD051EAC35101EB1220530638BF7047B6
:101BE00000F1010008BF20F0010070474FF47F0CA6
:101BF0001CEAD0121EBF1CEAD11392EA0C0F93EA22
:101C00000C0F00F0478090EA010F48BF42F4807249
:101C10004FF0004C4CEA00204CEA012102EB030299
:101C2000A0FB0113A2F50002002918BF43F0010335
:101C30005B0028BF4FEA330342EB22425FEA132CDA
:101C40004CEBC2502EBFBCEB436FB2F57C0F70471C
:101C50004FEA036CBCF1004F08BF20F00100B2F561
:101C60007C0F38BF70470BD582F0FF0212F5803F22
:101C7000C8BF704700F1C040D8BF00F000407047B7
:101C800000F5000C5FEA4C0C48BF7047B0F1C04053
:101C900000F073B890EA010F0CEAD11348BF42F488
:101CA0008072624538BF634504D280EA010000F0CB
:101CB0000040704710B500F01AF800BF8900013EDF
:101CC00000F007B800F009B85FEA410C5FEA1C6C4D
:101CD00008D080EA010000F050B85FEA400C5FEAEB
:101CE0001C6CF6D14FF00040A0F5800070470EF15B
:101CF000020E2EF0030E5EF8044B244204D44FEA89
:101D00004102B2F17F4F11D84FEA4003B3F17F4F48
:101D10000CD80ED14FEAD07CB2F17F4F0CEB4C0CBB
:101D20000CF1020C08BF4CEBD17C04E04FF0080C26
:101D300001E04FEAD17C0CEB4C0324FA03F404F0ED
:101D40000704B4F1040C06D20EEB840CBDE810407D
:101D50004CF0010C6047DFE80CF0070802024FF07E
:101D60000040A0F5800010BD0846420018BFD2F127
:101D7000807288BF00F0004010BDFF2141EAD050C2
:101D8000C0057047010202030405060708090A0B93
:101D90000C0D0E0F101000000000000000000102EA
:101DA0000304060708090000000001020304000004
:101DB000D01D0008000000202000000028010008BD
:101DC000F01D0008200000208007000044010008EA
:101DD0000000000000000000000000000000000003
:101DE00001000000100000000000000000127A0056
:04000005080000ED02
:00000001FF
